:020000022000DC
:106000000000042029250300692503006B250300F7
:106010006D2503006F2503007125030000000000BB
:10602000000000000000000000000000DD57030039
:106030007525030000000000FD57030079250300CB
:10604000515903007B250300A97303007B2503003E
:106050007B2503007B2503007B2503007B250300B4
:106060007B2503007B2503007B2503007B250300A4
:106070007B2503007B2503007B2503007B25030094
:106080007B250300355503007B2503007B2503009A
:106090007B2503007B250300C18C02007B250300C8
:1060A0007B2503007B2503007B2503007B25030064
:1060B0007B2503007B25030000000000000000009A
:1060C0007B2503007B2503007B250300655E030021
:1060D0007B2503007B2503007B250300396E03002D
:1060E0007B2503007B2503007B25030000000000C7
:1060F000000000007B25030000000000DD5E0300BF
:10610000000000000000000000000000000000008F
:10611000000000000000000000000000000000007F
:10612000000000000000000000000000000000006F
:10613000000000000000000000000000000000005F
:10614000000000000000000000000000000000004F
:10615000000000000000000000000000000000003F
:10616000000000000000000000000000000000002F
:10617000000000000000000000000000000000001F
:10618000000000000000000000000000000000000F
:1061900000000000000000000000000000000000FF
:1061A00000000000000000000000000000000000EF
:1061B00000000000000000000000000000000000DF
:1061C00000000000000000000000000000000000CF
:1061D00000000000000000000000000000000000BF
:1061E00000000000000000000000000000000000AF
:1061F000000000000000000000000000000000009F
:10620000F1EE103A43F08073E1EE103A704700BFB0
:1062100010B5054C237833B9044B13B10448AFF3E0
:1062200000800123237010BDB86200200000000030
:1062300050E4030008B5034B1BB103490348AFF317
:10624000008008BD00000000BC62002050E4030094
:10625000154B002B08BF134B9D46A3F5803A002138
:106260008B460F461348144A121A14F025F90F4BA7
:10627000002B00D098470E4B002B00D098470020F1
:10628000002104000D000D48002802D00C48AFF397
:10629000008014F0A7F82000290011F017F914F07D
:1062A0007BF800BF00000800000004200000000090
:1062B00000000000B86200202895002000000000C7
:1062C0000000000010B5014688B00D4C0D4802F0EA
:1062D000EFFC002320226946CDE90033CDE90333EA
:1062E000CDE905330293079301F094FA064920465D
:1062F00010F022FA6946204610F0C0FA08B010BD2E
:10630000F080002058650020C8D7030038B5084C3D
:1063100020460D4610F092FA0649204610F00CFA7D
:10632000294620461022BDE8384010F061BB00BF6E
:10633000F0800020D8D7030070B5134E134D144CD5
:10634000304602F02FFE134A1349304613F0ECFF9B
:10635000124802F0B5FE28464FF4807102F0FCFFAF
:106360000C4A0F49284613F0DFFF204602F0FCFCE0
:106370000C49084A204613F0D7FFBDE870400A498F
:106380000A4806F009B800BF34630020D463002037
:10639000D462002000600020A966020094630020FF
:1063A000C59802009166020004810020B0640020BC
:1063B0002DE9F041424943488AB010F05FFA424863
:1063C00006F04AF900284BD140493E48404D10F0B4
:1063D00055FA3F4A3F49172301A803F023FF3A48E3
:1063E00006F058F93C490446364810F0A5F9A4B225
:1063F0003749344810F0A0F984B1334F04F01F0638
:10640000A6424FF0200138461ED131462E4806F0F4
:1064100059F93246014601A803F09CFD01A803F09A
:106420004DFE2E4927482E4C10F028FA264806F03B
:1064300023F90121244806F025F895E80F0007C448
:1064400023700AB0BDE8F08106F03CF9203C01461B
:10645000202201A8A4B203F07DFD002CD0D1DDE7FD
:10646000184820491A4D204F044610F007FA1F4BD8
:1064700093E807002E4685E807004FF0000802E089
:10648000B8F1640FA5D0A7FB0831C90801EB81035F
:10649000A8EB43033031C9B230332046AB71697188
:1064A00010F078F9A979204610F038FA09483146F9
:1064B00008F1010803F020FF0028E1D189E700BFBF
:1064C00048D80300F0800020B064002058D80300B2
:1064D00020650020C468002084D8030098D80300F9
:1064E0003065002068D80300CDCCCCCC78D8030030
:1064F000F8B5324C324D334E2046012102F096FB66
:106500002046042102F05AF900222046012102F01F
:1065100085F92046042102F03BFB04F52C77204648
:10652000294902F00DFB3846284901F031FD284980
:10653000384601F02FFD2748274F02F057FD284627
:1065400026490B2202F0F6FD09222549284602F0D1
:10655000EDFD284602F0F2FD304603F0E7F938463B
:1065600004F5007502F02AFC3846642102F01EFC96
:106570000621284600F042FA284600F027FA314664
:10658000284600F0E5F904F50F7000F0F1F928460F
:10659000012100F065FA2846F422202100F05CFA7F
:1065A00028461E2100F056FA2846002100F0B8FACD
:1065B000BDE8F8400B490C4810F060B95865002060
:1065C00094630020D4630020A4D80300C5620200B5
:1065D0000D63020034630020D4620020B0D80300B1
:1065E000BCD80300C8D80300F080002008B5012102
:1065F00002200FF0B1FF1D484FF4E13110F0B0FB65
:106600001B484FF4164110F021FD1A48022103F0F7
:1066100061FD30B31849154810F030F917484FF4B0
:10662000164105F0C1FEB8B11549104810F026F921
:106630000021124805F09AFF1048012105F022FFC1
:10664000FFF756FF4FF4FA700CF060FEBDE808400B
:106650000C49064810F0A2B80B49044810F00EF996
:10666000EEE70A49014810F009F9D3E7F08000206D
:1066700004810020C468002010D80300B06400200A
:1066800024D80300E4D8030034D80300F4D703006F
:1066900010B5044B044640F8103B00F073FB204655
:1066A00010BD00BF18DA030010B5044B044640F8D3
:1066B000103B00F067FB204610BD00BF6CDA030002
:1066C0002DE9F0432E48DFF8CC902D4EDFF8C8803E
:1066D0008DB010F0B3F82B49294810F02DF82A4955
:1066E000274810F029F82949254810F0C7F8264A0C
:1066F000274903A8012303F095FD03A803F01EFC1E
:10670000002837D001A9042203A803F0CFFC0CAB6A
:1067100053FA80F300220A2003F82C2C0CF0F6FD2B
:1067200001A90422484602F047FF01AC02AF14F869
:10673000015B0F2D4FF01002294630460BD910F0A7
:1067400087F9BC42D9D014F8015B0F2D4FF010022D
:1067500029463046F3D841460FF0C0FF29461022A3
:10676000304610F075F9BC42E1D103A803F0E6FB16
:106770000028C7D103A803F0A1FC0DB0BDE8F08349
:10678000F080002018D903003065002028D90300CC
:10679000C4680020E4630020B8DD0300F0B542487F
:1067A000424D434F8BB0012105F06CFE414E28460F
:1067B00002F032FD03462846002B55D002F07CFD46
:1067C000C4B2214630460FF0E5FF782C65D0702C1E
:1067D00050D0722C1BD0772CE9D1374A374B07CADF
:1067E000402483E807001A4635490094342302A860
:1067F00014F0E8FC02A92F4810F040F802A814F0A9
:1068000027FD02A902462F4802F0D6FECEE7FFF789
:10681000CFFD6321284602F08FFF3946304610F045
:106820002DF8394627480FF087FFFFF749FF11235E
:106830000093224A224902A814F0C4FC02A814F0D2
:1068400007FD02A902461F4802F0B6FE30460FF0CF
:10685000F5FF02A9304610F011F8284602F0DCFCE2
:1068600003462846002BA9D14FF4FA700CF04EFDD8
:106870000BB0F0BD104B93E8070087E807003946DE
:1068800030460FF0FBFF39460E480FF055FF082049
:106890000CF03CFDFFF714FF89E70B4930460FF081
:1068A000EDFFFFF785FD82E7B0640020D463002090
:1068B00030650020F080002078D80300206500209B
:1068C00040D90300E463002038D9030072DF704729
:1068D00073DF704777DF704738B5054608460C46CA
:1068E00001F0F0FC102803D080280ED0012038BD24
:1068F000EB7F22881B2B0EDCE9180320E85448703C
:106900004A80EB7F0433EB77F0E76368002BEDD030
:10691000E97F0D2901DD002038BD6A181120685477
:106920000721517058681C689968DB68C2F80E30FE
:10693000C2F80600C2F80240C2F80A10EB7F123318
:10694000EB77012038BD00BF0022C277027070478C
:1069500000B50246D1E9020183B06B4683E803002B
:1069600019461046FFF7B8FF03B05DF804FB00BFFF
:10697000F0B589B0064620221348694602F0F4F8C3
:10698000F37FC2181D2A0CDDC3F11D04E4B2E21826
:106990001D2A4FF00005D8BF082705DD284609B09D
:1069A000F0BD044601250927F218601CF054694621
:1069B0005770901C224613F057FDF27F02321444A8
:1069C0002846F47709B0F0BD5865002010B504469C
:1069D000094802F027F9E37F1C2B01DD002010BDE0
:1069E000E2180221E1540A2390705370E37F0333CD
:1069F000E377012010BD00BF58650020C27F1C2A2C
:106A000001DD0020704710B403469C180220985402
:106A10000120A1706070DA7F0332DA775DF8044BF1
:106A2000704700BF10B4084A084C094902620022AE
:106A3000C0E90A41C0E90C225DF8044B0270C2773C
:106A400042628263704700BFFF0101002000F40032
:106A500020001E00C18570470185818542857047F1
:106A600080F82210704700BFF0B5154605EB85038E
:106A7000274A89B0044603EB830300200E469B009F
:106A800011680290CDE90460ADF8143094F821301B
:106A90008DF80830CB07CDE90600039009D41D49D5
:106AA0001D4BC87FE77F988101201C6099609F8003
:106AB0001060194902AA04F12000FFF707FF10B186
:106AC000002009B0F0BD94F820101448019102F0A4
:106AD000A9F8019902460120FFF7FCFE0028EFD13A
:106AE00094F820000121FFF7F3FE0028E8D10B48BD
:106AF00002F0F6F8628EA68595424FF0010094BF31
:106B0000521B921A628684F8230009B0F0BD00BFC0
:106B100040650020946700204465002058650020EF
:106B2000F0B5002361F30F032D4D044661F31F43BD
:106B300089B00363FA21284602F07CF8E68D2949E2
:106B4000278D0868049706EB860303EB8303002276
:106B50009B000592ADF8143094F8213002928DF824
:106B60000830C307CDE9062203920BD41E4BE27F07
:106B700095F85B029A8005F50F7501221C609D60F7
:106B800098810A60184902AA04F12000FFF79EFECE
:106B900010B1002009B0F0BD94F820101048019108
:106BA00002F040F8019902460120FFF793FE002809
:106BB000EFD194F820000121FFF78AFE0028E8D1E8
:106BC000074802F08DF8638EA7859E424FF00100C2
:106BD00094BF9B1BDB1A638684F8230009B0F0BDC9
:106BE00058650020406500204465002030B50B88C2
:106BF0008D88112B85B0044605D0262B33D0102B61
:106C000025D005B030BD436AEB40DB07F9D52E48EF
:106C100001F09EF90028F4D1636A94F82310012250
:106C200002FA05F523EA050363620029E9D194F825
:106C30002230002BE5D0238E24486386FA2101F010
:106C4000F9FFE28D218D2046FFF70EFFD9E7CB7BC0
:106C5000012BD6D1426A03FA05F51543002345629C
:106C600080F82330CDE70B7A012BCAD1002380F8BE
:106C700023304FF4FA71154801F0DCFF238E5BB12D
:106C8000658E95B1A36B0BB19847658E618D2A46D1
:106C90002046FFF7E9FEB4E7A36B03B19847618D87
:106CA00000222046FFF7E0FEABE7084802F02CF890
:106CB000626B002AA5D0009503AB294628460395B0
:106CC0000FF01CFB9DE700BF0868002058650020FE
:106CD00075DF704710B44FF010144FF448010022D4
:106CE000C0E90041C0E902225DF8044B704700BFD3
:106CF000014800F031BF00BF28680020F8B500252A
:106D00000D4F2E4601E0142D14D0A9B2384601F0E3
:106D1000CFFF013504460028F5D000F067FD0028BC
:106D2000F1D0204600F066FD022804BF0136F6B21D
:106D3000142DEAD13046F8BD586500200A881F2A74
:106D400000D0704700B50B4651F8080F83B0496872
:106D50006A4603C29888BDF80030ADF80230694633
:106D6000FFF7B6FF03B05DF804FB00BFAADF704772
:106D7000ABDF7047ACDF7047ADDF7047AEDF704709
:106D8000B0DF7047704700BF10B5044610F0F0FB4D
:106D9000204610BD70B5594B04461B680361061DA3
:106DA00096B0304601F09CFA94F8263013F0320287
:106DB00008BF84F8272013F00C0208BF84F82820AD
:106DC00013F030037AD10FAD0F93C5E90133C5E954
:106DD000033394F8262094F82710AB618DF83C20FB
:106DE0000022ADF809209DF80A20A0691493012320
:106DF00063F342028DF808108DF80A2008B1037879
:106E000053BBA37F13B104F11E03129394F82920FE
:106E100005960023D207CDE9073354BFE389E08903
:106E2000ADF81C3058BF184604F127010691ADF8A3
:106E30002000294604F12A036569099505AA002066
:106E4000FFF794FF054620B9637F83B9237B002BAE
:106E50004DD0284616B070BD109014F0F9F902AB71
:106E600080B2ADF84400ADF846001393C9E7ADF821
:106E70000D009DF80E30224A0C90012161F342036F
:106E8000526894F8271004928DF80E3004AA022359
:106E90008DF80C1003A90D90ADF83030ADF83430FA
:106EA0000A9204F11C030B910DF102020AA90E9340
:106EB000FFF75EFF0028C9D00546CAE7104B94F8DB
:106EC00027101B788DF804300FAD022200238DF8B7
:106ED000062094F826200F938DF80510C5E901339C
:106EE000C5E90333AB618DF83C2001AB78E721465F
:106EF000044800F0EDFF284616B070BD5465002030
:106F00004CD90300586500202DE9F0410B888E888C
:106F1000502B8AB00C46054609D0512B04D18B79F1
:106F2000012B18D0022B26D00AB0BDE8F081CB8807
:106F3000428D9A4235D0EA8D9A42F5D1EB6C002B06
:106F4000F2D095F83C20648A92077ED422462946E6
:106F500030469847E8E7036C002BE5D090F83C20DA
:106F6000520701F1080700F192803A46294630465F
:106F70009847A379D6E7A27B042A4AD0062A20D0D4
:106F8000012AD1D16B6C002BCED095F83C2017078D
:106F900004F1080400F1A7802246294630469847AC
:106FA000C2E7876C002FC6D090F83C30D9075CD47C
:106FB00004F11208238A424629463046B847E3883E
:106FC000B9E76A6B002AAFD0002202A93046CDE9AA
:106FD0000222CDE90422ADF80C208DF80830FFF72D
:106FE000CFFEAC6C4CB195F83C30D80700F19C80DA
:106FF0006B8F6A6B30462946A0476C6B0DF02AFFF9
:10700000012820467FD00CF0ADF90023C5E90D33EF
:107010008AE7686B002879D0278A628A298F07EB74
:10702000020C00234FF0020E8C45CDE90633CDE96A
:1070300008338DF818E03ADD40F20913ADF81C3042
:1070400006A93046FFF79CFE6EE7032000211A4692
:10705000009006AB0846CDE9066508940FF04EF99E
:1070600000287FF461AFEB6C70E7218A069604F18B
:107070001208042300933A46404606ABCDE9088146
:1070800007950FF03BF9002899D1AF6C92E70321E7
:107090001A46009106AB08213846CDE906650897E7
:1070A0000FF02CF900287FF464AF2B6C5DE79DF89E
:1070B0001EC0ADF81C3004F114014CF0010338443B
:1070C000ADF822208DF81E300991ADF8207013F034
:1070D000CBF9238A618A6A8F0B449BB2934238BFF3
:1070E00013466B87ACE703211A46009106AB0E21CD
:1070F0002046CDE9066508940FF000F900287FF4DA
:1071000013AF6B6C48E713F099F97EE74FF4806793
:107110002F870DF09FFE0128384616D00CF010F98D
:10712000002368636B8777E7686B698F0696042393
:107130000093224606ABCDE9075009910FF0DEF827
:1071400000287FF45AAFAC6C52E713F06FF9E7E711
:107150002DE9F04F0F464FF6FF718F4289B006467A
:1071600015461C4626D0F18996F826308C4228BF59
:107170000C46DB0615D40DF1100B8C4228BF0C46D3
:107180004FF00008718DADF810405A464FF6FF7071
:107190000595ADF81280FFF7EDFD404609B0BDE85A
:1071A000F08F3948394601F06BFD08B1F18D31B9E6
:1071B000F189E0E7344801F06FFD0746D3E700208E
:1071C00002230DF1100BADF81200ADF810305A4645
:1071D0000DF10E0338460593FFF7CEFD43F2014350
:1071E00098424FD000284AD19DF80E8008F001083F
:1071F000B8F1000F46D02448394601F059FD8246C7
:10720000A0B300F0F9FA033883B2002CC5D0CDF852
:1072100004804FF00009984605E0BDF80E30E41AEE
:10722000A4B21D4444B3504600F01EFBA0450346E3
:107230004246594628BF22463846BBB1ADF80E201B
:107240004FF00102738D8DF812200DF10E02CDE981
:107250000625CDF813908DF81790ADF81030FFF794
:107260008DFD0028D9D0504600F008FB4FF00008F3
:10727000404609B0BDE8F08FDDF804808DE700F0EE
:107280000108B5E7F18978E75865002030B4144B60
:10729000144A19780260142500220324C58180F85D
:1072A0002940C0E90D2230BCC0E91022C0E91222F9
:1072B00082718280826080F83C2002730261826168
:1072C0008283C0F81E20C0F8222080F82620426168
:1072D0004285C262028680F8281080F82710704725
:1072E0004CD903005CD9030070B483B06D4685E8C7
:1072F00006000446164944F8041B034695E80300BB
:10730000144E84E80500317883F828100320002209
:10731000142583F829001846C3E90D22C3E9102279
:10732000C3E91222DD8183F83C201A731A619A6145
:107330009A83C3F81E20C3F8222083F826205A61BE
:107340005A85DA621A8683F8271003B070BC70473A
:107350005CD903004CD9030010B483B06C4684E8B8
:107360000600034694E80300043383E8050003B0F5
:107370005DF8044B704700BF006970470123037339
:10738000704700BF80F82610704700BFC18170476A
:1073900041B190F82930C181002262F3000380F8E6
:1073A0002930704790F82930012262F3000380F8F9
:1073B0002930704780F8271080F82820704700BFD8
:1073C00090F83C30816462F3000380F83C307047F1
:1073D00010B490F83C3090F829404164003918BF4F
:1073E000012161F3041462F3C30380F8294080F89B
:1073F0003C305DF8044B70478161704751F82A2F8B
:10740000026049684160704730B5C48983B09442D6
:1074100023460D4628BF1346418D019500246A4638
:107420004FF6FF70ADF80030ADF80240FFF7A2FC58
:1074300018B9BDF8000003B030BD204603B030BD20
:1074400030B5C38985B00A46012B28BF0123418D81
:107450008DF8072000240DF1070502AA4FF6FF70F2
:10746000ADF80830ADF80A400395FFF783FC18B972
:10747000BDF8080005B030BD204605B030BD00BFE6
:1074800030B5C38985B00A46022B28BF0223418D3F
:10749000ADF8062000240DF1060502AA4FF6FF7094
:1074A000ADF80830ADF80A400395FFF763FC18B952
:1074B000BDF8080005B030BD204605B030BD00BFA6
:1074C00090F8263013F0100301D11846704730B5FC
:1074D000044685B011480D4601F0D2FB10B1E18D94
:1074E00011B9084605B030BD0DF106032846002449
:1074F000022502AA0393ADF80A40ADF80850FFF741
:107500003BFC43F20143984206D008B99DF80600BF
:1075100000F0010005B030BD2046E3E758650020CB
:1075200010B490F8264014F0100403D05DF8044B1A
:10753000FFF70EBE20465DF8044B7047A1DF704791
:10754000A3DF7047A4DF704700238382704700BF2A
:10755000806900F0E3B800BF808A70472DE9F041F0
:107560000B88CE88382B86B00C46054606D0392BC2
:1075700066D0362B43D006B0BDE8F08100F11C0781
:10758000002E36D10A8A3846314602F0ADFA94F818
:107590000C80B8F1010F2CD0B8F1040FEBD1A86921
:1075A00000F0BCF801465C4801F082FB00F024F9D1
:1075B0002A8D053883B2934228BF1346002B00F072
:1075C0009A80218AE289A869AC8A8DF80D600A4404
:1075D000696A05918DF80C80ADF81230ADF8102075
:1075E000ADF80E4000F09AF803A9FFF7A9FF0028B4
:1075F000C1D0384602F090FA06B0BDE8F08180694B
:1076000000F08CF80146444801F052FB00F0F4F819
:1076100007466EBB05F11C06E289304604F11001F5
:1076200002F062FA2B8D2BB1F81EE38980B201388B
:10763000834255DA304602F06FFA06B0BDE8F081B9
:107640000B7B012B1AD0022B95D1036B002B92D010
:1076500090F834208F8892071FD401F11006E28938
:1076600031462846984761893846FFF76BFF82E725
:1076700005F11C07384602F04FFABDE7C36A002B3C
:107680003FF479AF90F83420D10717D404F11006F5
:10769000E2893146284698476DE7C989039004F18D
:1076A000100603201A46009003AB3046CDE9046172
:1076B0000EF024FE0028D6D12B6BD0E7E189039091
:1076C00004F1100603201A46009003AB3046CDE9C2
:1076D00004610EF013FE00287FF44DAFEB6AD7E78C
:1076E000A86900F01BF86A8DA98A92B2FFF726FFFD
:1076F00000289FD13FE7AA8AA869ADF80E2040F282
:107700000511ADF80C10CDE9043300F007F803A91A
:10771000FFF716FF6DE700BF5865002080887047AF
:1077200076DF70477FDF704786DF70478FDF7047F7
:1077300090DF7047B1DF7047B5DF704710B5074B7A
:1077400003600446C0690CF063FC206A0CF060FC26
:10775000606A08B10CF05CFC204610BD74D90300CF
:1077600010B5094B03600446C0690CF051FC206A57
:107770000CF04EFC606A08B10CF04AFC20460FF099
:10778000F7FE204610BD00BF74D9030070B5044653
:10779000154D1068A1801721C4F813002560907959
:1077A0009588E1804FF4D816D179A4F817500122BA
:1077B000227422736076617318461946A6609DF89C
:1077C00010500BF04FFE2946E06128460BF04AFEB0
:1077D00000234FF6FF722062C4E90A33E28163742A
:1077E0006362A374204670BD74D90300007C7047A7
:1077F000407C7047407B7047C08870470089704765
:1078000030B451F8135F05608C888A798480827166
:1078100030BC70472DE9F04186B004ACB0F804806C
:1078200016460D4620464FF4285100F03FFDCDE9A5
:1078300000564FF6FF77012094E80C004146CDE951
:107840000207034800F0E0F906B0BDE8F08100BF90
:107850005865002008B513218088FFF761FFB0FA52
:1078600080F0400908BD00BF08B56621C0690CF072
:1078700053FA003818BF012008BD00BF08B5002327
:107880001A461946C0690BF01FFE003818BF0120C8
:1078900008BD00BFC2898188407B02F083B900BF68
:1078A0000A46C189407B02F099B900BF70B50B88C8
:1078B000113B96B00C460546462B77D8DFE813F00F
:1078C0008400870047008A00760076007600760004
:1078D000A100B00076007600760076007600760093
:1078E000BC00C400CA00D0007600760076007600A6
:1078F00076007600760076007600760076007600D8
:1079000076007600760076007600760076007600C7
:107910007600D300760002017600760076007600CD
:1079200076007600760076007600760076007600A7
:107930007600760076007600760076007600760097
:107940007600D600DD007600E3007800F2000DF04E
:1079500081FA01284FF0500000F0D7800BF0F0FCC6
:10796000E86218B35022002112F0A6FD71496C7B29
:10797000EB6A086800906A46012C0C7914714FF08C
:1079800000014FF6FF7003F11C04029303F138036A
:10799000CDE90643E88118BF0A46A888059102ABE5
:1079A000CDE90311CDE90811FFF7BCFE16B070BD9B
:1079B0008B79002BFAD1406AAB740028F6D01A46B6
:1079C00019460BF081FDF1E700230374EEE74B89C4
:1079D0000381EBE75022002102A812F06DFD218AFD
:1079E000687B02AA02F0FAF8034600287BD0002345
:1079F000A88802A910AAFFF797FEBDF81A30EB81FC
:107A0000D4E70B7A002B00F08380EC6A0DF022FAA9
:107A10000128204676D00BF0A5FC0023EB62C5E7D9
:107A20000B7A112B65D1A86A0028BFD000231A4613
:107A300019460BF049FDB9E7002302A98088ADF88B
:107A40000830FFF773FEB1E70B7A002BAED14B7A0B
:107A50000373ABE7002211468088FFF769FEA5E7B4
:107A60000B894381A2E74B89C3809FE700231A4615
:107A700019468088FFF75EFE98E7406A0123AB74E1
:107A80000028D3D192E7417B2B4801F009F9E38824
:107A90000146994228BF194689B2A888E980FFF7B4
:107AA0004BFE83E78B79002B80D0002600231A46FB
:107AB0001946E8690BF008FD0136A279F3B29A4243
:107AC000F4D873E78B7A002B3FF470AF00260023C5
:107AD0001A461946286A0BF0F7FC0136A27AF3B26F
:107AE0009A42F4D862E7A8881A461946FFF71CFEA6
:107AF0005CE7C2898188407B02F0A4F890B1012341
:107B00006B7490E712F09AFC87E712F08FFC27E77E
:107B1000C26A8188538AC38101234374407B02F087
:107B20002DF872E7034602460146A888FFF702FED9
:107B3000E5E700BF576800205865002010B50446EF
:107B4000043001F071FF034B2360002323752046AE
:107B500010BD00BF0100FFFF017D01B1704710B5EE
:107B60000446043001F06AFF0123237510BD00BFF5
:107B7000007D70470B88322B10B504D0332B17D003
:107B8000302B08D010BDCB88DBB1041D2046BDE8EA
:107B9000104001F0C1BFCB88041D002BF6D14B89EA
:107BA000002BF3D00A3120460A2201F09DFFEDE7B9
:107BB000CB88002BE9D14A89002AE6D002EB4202A9
:107BC00004E04A89002AE0D002EB82025200041D40
:107BD000023292B20A31204601F086FFD6E700BF9A
:107BE000A0DF704710B5044600F5F87001F01CFFE7
:107BF0002046F822002112F05FFCF822A018002194
:107C000012F05AFC204610BD2DE9F04385B0054620
:107C1000BDF83800ADF80C00BDF83C00ADF80E0022
:107C2000E8461E48BDF8349088E80C000F4601F085
:107C30003FF805F5F875064603E0FFF7DFFD0BF0AA
:107C400065FB284601F04EFF04463046002CF4D177
:107C50000121284601F0F2FE0C994A46284601F01F
:107C600009FF4146384603AAFFF7BAFF30B128465C
:107C700001F0EEFE204605B0BDE8F0834FF4FA7146
:107C8000284601F0FDFE20EAE074284601F0E0FEFF
:107C9000A4B2204605B0BDE8F08300BF58650020BF
:107CA0002DE9F04F8F880D8885B088460446394607
:107CB000864800F0FDFFA5F11003012B814640F23C
:107CC000908094F854203AB3002633461633502D52
:107CD00054F823A069D0512D1AD198F80630B8F87D
:107CE00008B0022B53D0BBF1000F11D051466846AB
:107CF000FFF784FBBDF800305B4559D0514602A820
:107D0000FFF77CFBBDF80C305B4551D094F8542054
:107D10000136F3B29342D9D394F84C31002B00F0E2
:107D2000D18004F5A679002604E094F84C310136A0
:107D3000B34220DD59F8040FFFF70AFCB842F4D132
:107D4000382D03D0392D01D0362DEED1B8F80AA048
:107D5000BAF1000FE9D0D9F800B05846FFF7FCFBA4
:107D60005045E2D158464146FFF7F8FB94F84C31B4
:107D70000136B342DEDC112D55D0352D04D1B8F8D3
:107D80000A30002B40F08F8005B0BDE8F08F98F8E6
:107D90000E30062BA7D1DAF800305046DB6841469A
:107DA00098474846FFF724FDB0E7B8F806B09AE7D1
:107DB000DAF800305046DB68414698474846FFF7FE
:107DC00017FD0028A2D0502DA0D1514602A8FFF7E0
:107DD00015FBBDF80C305B4598D14846FFF75AFDBE
:107DE00094E72378002B3FF46CAF0026112D334627
:107DF0000CD004EB83033946586803685B689847E6
:107E000001362278F3B29A42F3D85AE704EB83039F
:107E10003946586803681B68984701362278F3B2E0
:107E20009A42F3D84DE7D3B10026334605E094F8E3
:107E30004C210136F3B29A4211D904EB8305D5F8EF
:107E40005001FFF785FBB842F1D1D5F85001FFF79B
:107E50007BFB013694F84C21F3B29A42EDD894F8AA
:107E6000F820002A90D000252B4604EB8303D3F89A
:107E7000FC008388BB420AD00135EBB2934283D227
:107E800004EB8303D3F8FC008388BB42F4D103687E
:107E90001B689847013594F8F820EBB29342E4D37D
:107EA00005B0BDE8F08F04F5F874B8F80C20204652
:107EB00008F1100101F018FE204605B0BDE8F04FB2
:107EC00001F02ABE112D7FF458AFC8E75865002095
:107ED00090F85420272A0CD810B4034602F1160457
:107EE000013280F8542043F8241001205DF8044B3F
:107EF00070470020704700BF0378132B06D800EBB3
:107F000083020133037001205160704700207047E5
:107F100075DF704778DF70477ADF7047054A0346A0
:107F200092E80300002283E80300C3E90222184616
:107F3000704700BF7CD9030008B5FFF7EDFF08B11B
:107F4000002008BDFFF7E6FFB0FA80F0400908BD49
:107F5000F8B500250D4F2E4601E0142D14D0A9B21E
:107F6000384600F0A5FE013504460028F5D0FFF79D
:107F70003DFC0028F1D02046FFF73CFC012804BF5F
:107F80000136F6B2142DEAD13046F8BD586500200E
:107F900081607047C16070470A88102A00D070471E
:107FA000CA7B012A0B46FAD10A8A0188914210B491
:107FB000448804D8A24202D85DF8044B70470146B9
:107FC0005DF8044B9888FFF7A3BF00BF8ADF7047B6
:107FD00030B40D4CC4621F25002250248584A02596
:107FE000C0E91122C0E90F22A0F84650A0F848408D
:107FF000006230BC8262028680F838204263C2642C
:10800000A0F85020704700BF000180002DE9F04F1C
:108010008FB002AE304686E80C000C4600F052F9F4
:10802000C5B2102D4FD0039E07220623A16994F8F4
:108030001C9001918DF815208DF81430ED080DF18C
:1080400014080DF1160A0027B9F1010F0C97CDE9BC
:108050000677CDE90877CDE90A77CDF833700ED9E8
:1080600098F8000001994B464A7882420FD00A786E
:10807000D4432344013213F0FF031144F4D108F137
:108080000108C245E0D100200FB0BDE8F08F11F823
:10809000024B013CE4B2224606A812F0E5F90DF1CC
:1080A000180B1CB9EBE714F0FF04E8D058462A4639
:1080B000314612F0CBF9641BAB440028F3D1012008
:1080C0000FB0BDE8F08F03220223AFE7F0B50B88B5
:1080D0008D88103B85B00E4604460D2B2CD8DFE86A
:1080E00003F067072B2B2B2B2B2B2B2B2B742B2DE0
:1080F000836AEB40DB071FD54C48FEF7FFFDD8B97C
:10810000A36A94F82C20012606FA05F523EA050552
:10811000A5628AB994F82D3073B11F232462A38419
:1081200004F1200104F14400FFF750FF20B940485A
:1081300000F0D6FD84F82C6005B0F0BD90F92E203B
:1081400091F91B309A422CDC90F8383001F1080785
:108150009BB1002502E0D5B2AB420CD9636B03EBB7
:10816000C5030CCB39462046FFF750FF94F8383052
:108170006A1C0028EFD09D4213D094F82F30002BBA
:1081800048D096F82430012B0BD9316A4A78FF2A5F
:108190002FD00A78D0430344013213F0FF03114477
:1081A000F4D104F120010020FFF710FF05B0F0BD6D
:1081B000CB7B022BC0D1836A012202FA05F52B4347
:1081C0000022836280F82C20B6E70B7A012BB3D112
:1081D000002580F82C50164800F096FD226C002AED
:1081E000AAD0009503AB2946284603950EF086F8E1
:1081F000A2E711F8025B6A1ED2B2022A28BF02224D
:1082000003A812F031F9012DCBD0228EBDF80C302D
:108210009A42C6D1E26B002A8ED0012300933846E1
:1082200003AB242103970EF069F885E71868002056
:1082300058650020A8DF7047704700BF30B500F1D7
:10824000080185B005460846019100F049F80199FA
:108250000DF10E020120FFF7EDFF044628B9044B93
:1082600004481D602946FFF747FE204605B030BD93
:10827000546500205865002030B482B06D4685E812
:1082800006000446064944F8081B034695E8030027
:10829000002184E805001846998002B030BC704780
:1082A0008CD9030062DF704763DF7047012200232F
:1082B00001808270436070470023416083700380B7
:1082C000704700BF8378012B08D0426822B9012B88
:1082D0008CBF80200020704780207047102070479E
:1082E00083787BB910B50446406868B1A11CFFF7DC
:1082F000D9FF616822461020FFF7D6FFB0FA80F060
:10830000400910BD01207047012010BD4DDF7047AE
:108310004EDF70474FDF704750DF70474BDF7047CD
:1083200010DF70477CDF70477DDF704760DF70478C
:1083300069DF704761DF704766DF704767DF70474E
:10834000704700BF03200EF065B900BF30B5224C66
:10835000224D83B0D4F808034FF0FF310BF0DCFC62
:108360000028F7D0C5B101A8FFF7D8FF0528F1D044
:108370000028F8D1019B032B1BD8012BF3D91846F9
:108380000AF05EF8EFE70A2B04D0092B21D00B2B63
:1083900002D101200AF0F2FD01A8FFF7BFFF052876
:1083A000D8D00028F8D1019BA3F10902022AF3D802
:1083B000E9E7A3F10902022AD5D80A2B04D0092B38
:1083C00005D00B2BCFD101200AF0D8FDCBE702203E
:1083D000FAE70220DEE700BF5865002041240300D1
:1083E0002DE9F04F2DED028B89B00CF033FD012803
:1083F0004FF4FA7000F080810AF0A2FF0546B14EFA
:1084000005F1080308EE103A06F5587706F5007AEC
:10841000D6F804034FF0FF310BF07EFC0028F7D0B4
:108420004FF4FA730DF116012846ADF81630FFF738
:1084300081FF10B10528F3D1EAE7B5F80490B9F14E
:10844000130F00F2378106EB8903D3F814431CB1F4
:1084500029462046FFF72AFA2B88013B1B2B5BD8C5
:10846000DFE813F018015A005A005A005A005A0067
:108470005A005A005A005A005A005A005A005A002C
:108480005A00B5001C005A005A005A005A005A00FF
:108490005A005A005A005A005A00A300DFF83882E6
:1084A0004FF0000B58F8040F30B1FFF79FF918B1E7
:1084B0000BF1010B5FFA8BFBB845F3D1BBF1000F59
:1084C00006D196F810331BB1594603200EF084F8FC
:1084D0002046FFF78FF9012800F0EE80D6F8CC2275
:1084E00062B10223CDF81890002195F808C00093DE
:1084F000084606ABCDF81CC00DF000FF09F1C4081A
:1085000006EB8803586810B103685B68984706EB70
:1085100088080023C8F8043029465046FEF766FB59
:1085200069482946FFF7D2FDB6F812334B452B8830
:1085300000F0B580102B1ED02CB32046FFF75AF95F
:10854000012803D161482946FFF726FD2046FFF7A1
:1085500051F902281BD05E48FFF70AFB00BB5948BF
:108560002946FFF79DFBD6F86833002B3FF458AF40
:108570002846984754E7EB7B012BDDD1AB88A6F862
:108580001233002CD9D151482946FFF705FD514837
:108590002946FEF7D3FB4E48FFF7EAFA0028DED063
:1085A0004B482946FFF7E6FAD9E7D6F86423002AB4
:1085B000B2D0CDF818900223002195F908C000939D
:1085C000084606ABCDF81CC00DF098FEA4E74FF0AE
:1085D0000008D6F80C03CDF800804346424603213C
:1085E0003D4C0CF013FF54F8040F30B1FFF7FEF8C8
:1085F00018B108F101085FFA88F8BC42F3D196F887
:1086000010336BB1B8F1000118BF012103200DF048
:10861000E3FF96F810331BB1012103200DF0DCFFBE
:1086200009F1C40806EB8804606820B103685B6840
:10863000984700236360EB7B012B0BBF96F8F23267
:1086400096F8F83296F8F34296F8F9420393302000
:108650000EF07EFF06EB8808039B009418EE102AAC
:1086600004464946FFF792F82046C8F80440FFF751
:10867000C1F8012832D0D6F8C822002A3FF44CAF06
:10868000012300210093084606ABCDF818900DF0A9
:1086900035FE41E700214846FFF74EFE3CE7102B30
:1086A0003FF469AF112B7FF447AF4FF6FF73A6F885
:1086B000123341E70446CFE6D6F8BC22002A7FF405
:1086C00010AF1BE758650020B46700200868002041
:1086D000286800201868002068680020D6F8B822B2
:1086E000002A3FF419AF0021009006AB0846CDF8F0
:1086F00018900DF003FE0FE711F098FE05467EE698
:1087000038B50446FFF76EFA04F50070FEF78AF9F3
:1087100004F50F70FEF718F904F51770FFF758FC11
:1087200004F52C70FFF7FAFB04F53070FEF7D2FA6F
:1087300004F53470FFF702FA1B481C491C4AC4F8C0
:10874000F4224FF480530025C4F8E83240F20113BC
:10875000C4E9BB01A4F8F8322946A4F8FA5204F59A
:108760004570502211F0A8FEC4F8FF5284F803535C
:10877000D4E9BF304FF6FF720E49A4F812230E4A17
:10878000C4F80453014003F00E430A4343F044533A
:10879000C4E9BF320121C4E9D955C4E9C25584F8FE
:1087A0001013204638BD00BF010A17000300010165
:1087B000170003000000FCFC0710030304290BD87A
:1087C000DFE801F00B130B1B0300104BC0F8EE3277
:1087D00040F20313A0F8F23270470D4BC0F8EE32AE
:1087E00040F20113A0F8F23270470A4BC0F8EE32A3
:1087F00040F20113A0F8F2327047074BC0F8EE3296
:108800004FF48173A0F8F232704700BFF7006400A4
:10881000170003001700020080000600F0B5BD4EEF
:1088200080F8FC128DB080F8FD2204460DF07CF833
:108830000DF082F80DF040F83369B749039303A8AF
:10884000FFF76EFD18B1002528460DB0F0BD0120E0
:10885000FFF75EFD0120FFF759FD0120FFF75AFDEC
:1088600009A8FFF759FD099B9B0705D5AB4BD3F82A
:108870000435002B00F0FB800023A94A94F8ED5248
:10888000049209A90120CDE909330B938DF82450F6
:10889000FFF74EFD0028D6D194F8FD320B90CDE9BC
:1088A0000900181E18BF012094F8FC528DF827000B
:1088B000049A8DF8263009A940208DF82550FFF73D
:1088C00037FD0028BFD194F8EC120990034661F3FC
:1088D0000003CDE90A00049A8DF8243009A9A020EC
:1088E000FFF726FD0028AED1D4F8E8320A900B90AD
:1088F000049A099309A9A120FFF71AFD0028A2D123
:1089000094F8FC32002B40F0B68094F8FD32002B36
:1089100048D00023B4F8F472049A0993022509A9F7
:108920002320CDE90A338DF82450ADF82670FFF7E7
:10893000FFFC002887D1CDE9090094F8FD72B4F856
:10894000F6320B90049A8DF8245009A920208DF856
:108950002670ADF82830FFF7EBFC00287FF473AFEA
:108960000990CDE90A0094F8F832049A8DF8245061
:1089700009A922208DF82630FFF7DAFC00287FF4C1
:1089800062AFCDE9090094F8F9320B90049A8DF8A2
:10899000245009A921208DF82630FFF7C9FC0028B2
:1089A0007FF451AF04A8FFF7C1FC00287FF44BAF60
:1089B000CDE9070040F0010307A902208DF81C3023
:1089C000FFF7BCFC00287FF43EAF04F52C70FFF7E6
:1089D000B3FA054600283FF436AF337D51498DF890
:1089E00008300B2202A8FFF79DFC00287FF42BAF74
:1089F00094F8FD32002B40F08880032200210120F2
:108A00000AF0EEFCC4F8040300283FF41CAF05ABE9
:108A10000326CDE900634449444800234FF4A06293
:108A20000BF094FC3246002101200AF0D9FCC4F876
:108A3000080300283FF407AF06ABCDE900633C49CB
:108A40003C480023C8220BF081FC3B4B4FF48002D2
:108A50001A603A4B00930023184601224FF48071AC
:108A60000CF07EFCC4F80C0301F062F8ECE6022086
:108A70000AF084FA00E70990CDE90A00B4F8EE3272
:108A8000049AADF82630012509A923208DF8245039
:108A9000FFF74EFC00287FF4D6AECDE9090094F82C
:108AA000FC72B4F8F0320B90049A8DF8245009A9A6
:108AB00020208DF82670ADF82830FFF739FC00280B
:108AC0007FF4C1AE0990CDE90A0094F8F232049A1D
:108AD0008DF8245009A922208DF82630FFF728FCB4
:108AE00000287FF4B0AECDE9090094F8F3320B9082
:108AF000049A8DF8245009A921208DF82630FFF71B
:108B000017FC00283FF401AF9DE604F53070FEF736
:108B1000EFF872E7E8D903004183020000700240D9
:108B200000600020D4D90300E0D90300E1830200F3
:108B3000E4D903004D83020000E100E04583020018
:108B400000B5084B85B01B7D019108468DF80C30AF
:108B500012F07EFB019982B203A8FFF7E3FB05B098
:108B60005DF804FBE8D9030000B583B008460DF1B9
:108B70000601ADF80620FFF7D7FB20B99DF80600E7
:108B800003B05DF804FB002003B05DF804FB00BFF8
:108B900070B4234B0E4605460FCB85B06C4607C418
:108BA0009DF900202380B24234D09DF90130B342B8
:108BB00030D09DF90230B3422CD09DF90330B3423E
:108BC00028D09DF90430B34224D09DF90530B3423A
:108BD00020D0FEB19DF90730B3421BD09DF908307B
:108BE000B34217D09DF90930B34213D09DF90A3032
:108BF000B3420FD09DF90B30B3420BD09DF90C302E
:108C0000B34207D09DF90D30B34203D0002005B028
:108C100070BC7047012085F8FE6205B070BC7047DB
:108C200000DA030090F9FE02704700BF80F81013CD
:108C3000704700BF30B5054683B0D0F80C030C4632
:108C40000CF010FC0D4AA4020146A2FB04320023E2
:108C50000C46D5F80C030093920904210CF0D6FBC6
:108C60000CB103B030BD0094D5F80C032346224666
:108C700003210CF0CBFB03B030BD00BFD34D62101D
:108C8000132906D800EB8101D1F8140308B1FEF7CF
:108C9000ADBD0020704700BFB0F81203704700BFA1
:108CA00001290CBFB0F8EE02B0F8F402704700BF23
:108CB00013299ABF00EB8101D1F8140300207047FB
:108CC00010B5064C0021D4F808030AF099FED4F838
:108CD00004030021BDE810400AF092BE5865002050
:108CE00090F8103303B9704710B582B0D0F80C4338
:108CF0000BF01CFD002302460093204601210CF0DE
:108D000085FB02B010BD00BFF0B583B0002405465E
:108D10002346D0F80C030094224603210CF076FB86
:108D200005F5447605F5587756F8040F20B1FEF79F
:108D30005DFD08B10134E4B2BE42F5D195F81033BF
:108D400043B1211E18BF0121032003B0BDE8F0404C
:108D50000DF042BC03B0F0BD0148FFF7D1BC00BF2D
:108D6000586500200020704770B582B06C460546FB
:108D700041F60F012046FFF799FA2E4694E80600C7
:108D80002846FFF779FA084B46F8103B204642F692
:108D90001921FFF78BFA94E806003046FEF7A4FA93
:108DA000284602B070BD00BF18DA030008B51030C5
:108DB000FEF746FB003818BF012008BD30B583B070
:108DC0000446FFF73BFA08B103B030BD0546122157
:108DD00004F110000190FEF7D5FA01982A461121FE
:108DE000FEF7E8FA01980121FEF7D2FA019803B0E4
:108DF000BDE83040FDF7CEBF3CDF70473DDF704738
:108E000011DF704713DF7047B0DF7047B2DF704784
:108E10002DE9F0419EB0074604A8158814460E4679
:108E2000FEF7ECFABDF81030AB4202D01EB0BDE840
:108E3000F081A379043B022BF8D939465248FFF759
:108E400037FF4FF000080223394605463046CDE98A
:108E50000688CDE908888DF81830FEF731FB06A9A1
:108E600000286AD03846ADF81C80FFF7CDFF247B80
:108E7000012CDBD1454E41463E22304611F01CFB11
:108E800023460DF10E02424938460824ADF80E4043
:108E9000FFF7BCFF68462946FEF7B2FC0098306039
:108EA000BDF804309DF80620B271B3802846FEF765
:108EB0009FFC002849D1354936484FF6FF740B46D0
:108EC00001311B7883EA142383EA131242EA042255
:108ED00083EA131382EA033282EA431381429CB28B
:108EE000EDD12A4B2C489C870021FDF7B9FD28467F
:108EF000FEF7B0FCFF210020FFF780FFB12100202A
:108F0000FFF77AFF002891D1FFF77AFF00288DD173
:108F1000224B4FF0FF324FF01024C3F88020C3F8EB
:108F200080216069FFF76EFF00287FF47FAF80F338
:108F30001488606900F05AFD78E740F2FD13384666
:108F4000ADF81C30FFF760FF70E70AA92846FEF76E
:108F5000A7FC0028AFD01EAB13E903000B0C306058
:108F6000B180B37118AC0FCC0D4FC6F807000AAC36
:108F70007960BA60FB600FCC18360FC694E8070022
:108F800086E8070097E700BF58650020807F002033
:108F9000B47F0020BC7F00205867002000E100E083
:108FA000877F002070B582B06C4605460C4920468C
:108FB000FFF782F92E4694E806002846FFF75CF991
:108FC000084B46F8103B20460749FFF775F994E82F
:108FD00006003046FEF788F9284602B070BD00BF93
:108FE00024DA03006CDA030044DA030070B5ACB095
:108FF0000546FFF723F918B1044620462CB070BD92
:1090000018AE2C493046FFF757F996E8060004A839
:10901000FEF76AF904A8FEF7B1F904A80421FEF7E7
:10902000B1F904A81421FEF7B1F904A8FDF7B2FEC6
:10903000044698B905F1100018210190FEF7A2F935
:1090400001981721FEF7A2F901981B490122FEF7AA
:10905000BFF90198FDF79EFE044628B104A8FDF76C
:1090600091FE20462CB070BD02AC20461349FFF79C
:1090700023F994E806003046FEF736F93046FEF74D
:109080007DF902213046FEF77DF902213046FEF7D8
:109090007FF93046FDF77EFE044618B901213046BF
:1090A000FEF7EEF93046FDF76DFE04A8FDF76AFE07
:1090B000D7E700BF34DA0300118E020054DA030050
:1090C00070B582B06D46044641F60A012846FFF7A6
:1090D000EDF895E806002046FFF7CEF820460F4B46
:1090E00040F8103B2422002111F0E6F90C4E0D4807
:1090F0000D4A60620023A363636384F83C301A2541
:10910000062113232046666184F8355084F839100F
:10911000A26284F83A3002B070BD00BFB8DA030032
:1091200078DA030094DA03009CDA0300416180F8E6
:1091300035207047816280F83A2070472DE9F0476A
:1091400096B00646FFF77AF88046002845D1B36905
:10915000002B4DD0F369002B55D0C6F5275909F1E6
:109160002F0906F10C0406F1300706F1340554F816
:10917000043F02A86BB3FEF789F8336B2268EA4616
:109180009A4209EB050189B2504608BF42F65021C8
:10919000FFF78CF89AE8060002A8FEF7DDF802A8AF
:1091A000FEF7ECF8022102A8FEF7ECF8297802A8F5
:1091B000FEF7EEF802A8FDF7EDFD824602A8BAF12F
:1091C000000F0ED12A782168FEF71EF902A8FDF7DC
:1091D000D9FDBC4205F10105C9D1404616B0BDE834
:1091E000F087FDF7CFFDD046404616B0BDE8F087CA
:1091F0000DF052F9044612F02BF8F369B46186F8C9
:109200003600002BA9D10DF007F9044612F020F822
:10921000F46186F83700A0E7D0F8C030988980B2B2
:10922000704700BF70B582B0064608461C460192E2
:10923000FEF7A2F8019905462246D0F8C0000EF0CC
:1092400067FA844206D9D5F8D8301BB1211A89B201
:1092500030469847D5F8D03023B1304602B0BDE84B
:109260007040184702B070BD08B592B2D0F8C00087
:109270000EF09CFA08BD00BF00B583B0D0F8C00066
:109280000DF1070200210EF0CDFA20B19DF8070084
:1092900003B05DF804FB4FF0FF30F9E7D0F8C000F1
:1092A0000EF024BAD0F8B030988980B2704700BF71
:1092B000D0F8B0000EF01ABA10B501680C4A8C69EB
:1092C000944282B00BD1D0F8C00001220DF1070109
:1092D0000EF06CFA40B19DF8070002B010BD0122FB
:1092E0000DF10701A047F5E74FF0FF30F5E700BFAC
:1092F0006992020000B583B0D0F8B0000DF107020A
:1093000000210EF08FFA20B19DF8070003B05DF840
:1093100004FB4FF0FF30F9E710B550F8101C0D4A70
:109320008C69944282B00CD0103801220DF10701F3
:10933000A04718B19DF8070002B010BD4FF0FF30F4
:10934000FAE701220DF10701D0F8B0000EF02EFA75
:10935000EFE700BF69920200F0B583B06D460446A6
:109360000F4628461A49FEF7A7FF95E80600204653
:10937000FEF782FF174B1849002603F108024FF44D
:109380007A704833C4E90436A06122602846FEF7AB
:1093900093FF95E8060004F12000FDF7A5FF28469D
:1093A0000E49FEF789FF95E8060004F17000FDF70D
:1093B0009BFF2046C4E93466A4F8C470C4F8C060BA
:1093C000C4F8D860C4F8C86084F8CC6003B0F0BDBD
:1093D000ECDA0300FCDA0300DCDA0300CCDA030089
:1093E000F8B506461B480F46FFF762FCE8B1FEF7EA
:1093F00003FAC41E0BF02EFDA4B20128204617D09C
:1094000009F09EFF054685B1D6F8C80022462946D8
:109410000EF0CCF9A0B901240BF01CFD0128284660
:109420000AD009F09FFF2046F8BD00242046F8BD71
:1094300010F0FCFF0546E6E711F000F82046F8BD05
:109440000346394606F120002A46FEF769F804462D
:10945000E2E700BF586500202DE9F84F0446264892
:1094600090461F460E46FFF723FCA0B304F12009E7
:10947000054631464846FEF723F860B394F8CC30F1
:109480000BB3D4F8C800F0B11FFA87FA5246414630
:109490000EF03EF9D4F8C82003462846B2F80CB0C6
:1094A0001D46FEF7A9F91FFA8BFB0338834506DB3F
:1094B00020463146FFF794FF68B1BD420FD33D46C9
:1094C0002846BDE8F88F424631464846BBB2FEF713
:1094D00027F80028F3D100252846BDE8F88FAAEB2D
:1094E00005039BB208EB050231464846FEF718F823
:1094F0000028F1D0E3E700BF586500202DE9F041D6
:1095000050F8103C82B0044629489E6A8DF8071036
:10951000FFF7C2FB274B9E420546A4F11007014608
:1095200007D0384601230DF10702B04702B0BDE86D
:10953000F0811F48FFF7BCFB0646F8B104F11008A4
:1095400040462946FDF7BCFFC0B194F8BC303BB3A0
:10955000D4F8B80020B30DF1070101220EF0D8F8BD
:10956000D4F8B8209289034630461C4696B2FEF7DE
:1095700043F90338864203DA0120D7E70020D5E714
:1095800038462946FFF72CFF0028F7D0002CF3D1EE
:109590000DF10702294640460123FDF7C1FFC5E74B
:1095A0002946404601230DF10702FDF7B9FFBDE74B
:1095B00058650020599402002DE9F04F50F8103CF6
:1095C000044681B02D48D3F8289088461746FFF707
:1095D00063FB2B4B99450546A4F1100608D00146C4
:1095E0003B4642463046CC4601B0BDE8F04F6047AE
:1095F00001462248FFF75CFB8346D0B304F1100913
:1096000048462946FDF75CFF98B394F8BC3043B355
:10961000D4F8B80028B31FFA87FA524641460EF034
:1096200077F8D4F8B8309B890246584614461FFA9A
:1096300083FBFEF7E1F80338834510DB304629460B
:10964000FFF7CEFEA8B1A74209D9AAEB04039BB24B
:1096500008EB040229464846FDF762FF50B13C463C
:1096600008E0424629464846BBB2FDF759FF0028AC
:10967000F5D10024204601B0BDE8F08F58650020E8
:10968000599402002DE9F0410568294BAD6A82B07A
:109690009D428DF8072041D1044626480E46FFF72B
:1096A00007FB054660B304F1200738463146FDF755
:1096B00007FF28B394F8CC3033B3D4F8C80018B3FC
:1096C0000DF1070101220EF023F8D4F8C8309B8970
:1096D000804628469DB2FEF78FF8C31E9D4224DBCC
:1096E00020463146FFF77CFE50B1B8F1000F1CD187
:1096F0000DF10702314638460123FDF711FF00E066
:10970000002002B0BDE8F0813146384601230DF15A
:109710000702FDF705FF02B0BDE8F08101230DF15E
:109720000702A84702B0BDE8F0810120E9E700BFC9
:1097300059940200586500202DE9F041036882B079
:1097400004462A489E6A8DF80710FFF7A5FA284BB1
:109750009E42054601463FD12448FFF7A9FA064636
:1097600060B304F1200738462946FDF7A9FE28B367
:1097700094F8CC3033B3D4F8C80018B30DF1070116
:1097800001220DF0C5FFD4F8C8309B8980463046D1
:109790009EB2FEF731F8C31E9E4225DB20462946C5
:1097A000FFF71EFE50B1B8F1000F1DD10DF10702F9
:1097B000294638460123FDF7B3FE00E0002002B041
:1097C000BDE8F0812946384601230DF10702FDF777
:1097D000A7FE02B0BDE8F081204601230DF107028B
:1097E000B04702B0BDE8F0810120E8E758650020ED
:1097F000599402002DE9F04F036881B004462F48C8
:109800009E6A88461746FFF747FA2D4B9E4205464B
:109810004AD101462948FFF74BFA064600283ED0B8
:1098200004F1200948462946FDF74AFEB8B394F8EA
:10983000CC3063B3D4F8C80048B31FFA87FA524655
:1098400041460DF065FFD4F8C82003463046B2F813
:109850000CB01E46FDF7D0FF1FFA8BFB0338834583
:1098600010DB20462946FFF7BBFDC0B1B74209D93E
:10987000AAEB06039BB208EB060229464846FDF711
:109880004FFE68B13E46304601B0BDE8F08F42461B
:1098900029464846BBB2FDF743FE0028F2D1002618
:1098A000304601B0BDE8F08F01463B4642462046B7
:1098B000B44601B0BDE8F04F604700BF58650020D6
:1098C0005994020010B50A4B0446D0F8C800236032
:1098D0004033236110B103685B68984704F170005E
:1098E000FDF750FA04F12000FDF74CFA204610BDB8
:1098F00004DB030010B50C4B0446D0F8C80023600D
:109900004033236110B103685B68984704F170002D
:10991000FDF738FA04F12000FDF734FA20460DF087
:1099200027FE204610BD00BF04DB030070B50446CF
:1099300082B018200DF00CFE0022054601210DF02A
:10994000ADFE2846B4F8C410C4F8C0500DF0B8FEFF
:109950002046FEF773FC054610B1284602B070BDE4
:1099600001211E48FFF79CF904F12006034610214F
:10997000304601961E46FDF705FD2A460198112145
:10998000FDF718FD01983146FDF700FD01981449D7
:10999000FDF732FD0198FDF7FDF905460028DCD101
:1099A00004F170000C210190FDF7ECFC01980D49C9
:1099B0000122FDF705FD112201982946FDF7FAFC69
:1099C00001983146FDF7E2FC01980749FDF714FDC7
:1099D000019802B0BDE87040FDF7DCB95865002081
:1099E000C4DA030025920200C8DA0300F0B403468B
:1099F000186880F308885868FF2464B2EFF305857F
:109A0000002D01D1A64600472546064621273FBA2C
:109A1000F0B40024002500260027F0B4F92040B25D
:109A2000004700BFF0BC7047002201214270C0E92E
:109A300001220170C2818281704700BF10B50446C7
:109A4000017001B110BD0A2009F00CFD606010BD6D
:109A5000037810B5044643B1002301226370C4E9C2
:109A60000133E381A381227010BD40680AF0D0FA6F
:109A7000F2E700BF002381608281C381704700BF8D
:109A8000037870B504460D4693B94068144BA9029B
:109A9000A3FB01310123890963700AF03DF990B9F4
:109AA000237800264FF0FF3566709BB9284670BDBD
:109AB00003220021012009F093FC60600028E5D119
:109AC0004FF0FF35F2E7E58923780026ADB26670E6
:109AD000002BEBD060680AF09BFA6660284670BDE8
:109AE000D34D62104078704738B504468089824271
:109AF00028BF0246154619B1A06810F0B5FCA08930
:109B0000E389A26815FA83F3401B9BB22A44A08123
:109B1000E381A260284638BD406820B100231A4680
:109B2000194609F0D1BC7047B1DF7047B2DF70470A
:109B300008B50F4808F010FB0E490D4802F0D6FE9C
:109B400028B10D490A4802F0D1FE50B108BD0949BB
:109B5000074802F0E7FE0849054802F0C7FE002862
:109B6000F4D1BDE808400449014802F0DBBE00BF63
:109B7000586B002060DB030074DB030070B586B017
:109B80000323144606460D460093104603AB044AD1
:109B900005945021CDE903650CF0B0FB06B070BD13
:109BA000259D020030B54FF6FF739A4287B01446E8
:109BB0000ED002460D46032300210093039208466F
:109BC000054A03ABCDE904540CF098FB07B030BD57
:109BD000002007B030BD00BF399E020070B5164DA1
:109BE000164EA0B00C46134601280CBF314629463C
:109BF000224668461D4611F0E5FA114B694607A852
:109C0000002203F0FDF807A803F096F918B9002424
:109C1000204620B070BD044607A802F089FF5028F6
:109C2000F5D10246294607A803F014F807A803F067
:109C30006BF8204620B070BDA4DB030088DB030076
:109C4000586B0020F0B54FF6FF73A3B09A4200AFF7
:109C50005DD0314B0C463149012818BF194607F138
:109C6000080011F0AFFA2E4B07F10801002207F1AE
:109C7000240003F0C5F807F1240003F05DF96D46F8
:109C800048B9002407F1240003F03EF82046AD4611
:109C90008C37BD46F0BD07F1240002F049FF061ED7
:109CA00008DD07F1240003F013F8311807F1240050
:109CB00002F0F0FF07F1240002F03AFF061E08DD73
:109CC00007F1240003F004F8311807F1240002F032
:109CD000E1FF07F1240002F02BFF0028D1DDC31DB6
:109CE00023F007036E46ADEB030D82B2694607F120
:109CF00024007A6002F0AEFF204669467A680323AA
:109D0000FFF712FFB0FA80F46409B546BAE7002401
:109D100020468C37BD46F0BDA4DB030088DB030082
:109D2000586B0020F0B51446AFB0012804AF0D46C3
:109D300007BF528A3B493C49E28D07F1080011F008
:109D400041FA3A4807F108016E4602F0CFFD0028BB
:109D50004BD1364B07F1080107F14400012203F013
:109D60004FF807F1440003F0E7F818B9AC37B546EF
:109D7000BD46F0BD502107F1440002F007FF50221C
:109D8000214607F1440002F03FFE002329462848FF
:109D9000FB62C7E90933C7E90C33C7E90E333B64FB
:109DA000FEF786FF07F124012022FDF733FD97F827
:109DB000243003B307F1240011F04AFA013082B2D3
:109DC000C1B207F144007A6002F0E0FE7A6807F160
:109DD000240107F1440002F017FE07F1440002F0ED
:109DE00093FFAC37B546BD46F0BD07F108010F48FB
:109DF00002F0F0FDADE794F8491094F84D3094F876
:109E00004E20039194F84A10029194F84B1001915E
:109E100094F84C10009107F12400064911F0D2F992
:109E2000C8E700BF88DB0300A4DB0300586B0020F9
:109E300058650020C0DB03002DE9F043A3B00C46B9
:109E400000AF00210323054616462046BA1DF980BF
:109E5000FFF76CFEFB88E84623B98C37C546BD4644
:109E6000BDE8F0830733DB08A8EBC3039D4620461B
:109E7000BA1D69460323FFF759FEE9460446002848
:109E8000EBD1284B28493246012D18BF194607F15E
:109E9000080011F097F9254B07F1080107F124009C
:109EA000012202F0ADFF07F1240003F045F800287D
:109EB000D3D0214607F1240002F0ECFE07F1240084
:109EC00002F036FE041E08DD07F1240002F000FF58
:109ED000211807F1240002F0DDFE07F1240002F052
:109EE00027FE041E08DD07F1240002F0F1FE211810
:109EF00007F1240002F0CEFEFC8807F12400E1B255
:109F000002F044FE2246494607F1240002F07CFD9F
:109F100007F1240002F0F8FE8C37C546BD46BDE8C7
:109F2000F08300BFA4DB030088DB0300586B002034
:109F3000006A10B103689B6818477047006A38B11F
:109F4000C269006947F6FF73101A984228BF184685
:109F5000704700BF10B50446006A40B1002343605B
:109F600092B201F0C3FA236A5B6803B910BD012302
:109F70006360002010BD00BF006A78B100B583B0F7
:109F800001220DF1070101F013F801280CBF9DF823
:109F900007004FF0FF3003B05DF804FB4FF0FF30D7
:109FA000704700BF10B50446006A82B080B101223C
:109FB0000DF1070100F0FCFF01280DD1206A9DF88A
:109FC00007400169013901F0ADF8204602B010BD2B
:109FD0000446204602B010BD4FF0FF34F5E700BF45
:109FE000006A10B1012101F041BA704710B5036851
:109FF000104A5B6882B093428DF8071013D1044673
:10A00000006A58B10023436001220DF1070101F0FD
:10A010006DFA236A5B680BB902B010BD0123002002
:10A02000636002B010BD01220DF10701984702B034
:10A0300010BD00BF559F0200F8B50646144B3360B3
:10A040004FF47A700024C6E9014028200D461746D7
:10A0500010F0ECF93062C8B1044605F1200E286812
:10A060006968AA68EB68A446ACE80F00103575452E
:10A070006446F4D128686968634603C30C223946F4
:10A0800006F1100011F0ECF8002333773046F8BDEC
:10A09000E8DB030004494FF47A7282600022C0E9D1
:10A0A0000012026202747047E8DB0300006A18B114
:10A0B00008B500F07DFF08BD704700BF10B504462D
:10A0C000006A30B100F0C2FE206A10F0B7F9002338
:10A0D000236210BD30B590F8413083B004460A4683
:10A0E0003BB90121204600F085FC68B9002003B08F
:10A0F00030BD3830019100F0A9FE019A01212046BF
:10A1000000F078FC0028F1D004F110052846012267
:10A11000214601F09BFE48B1294604F1380000F0C9
:10A120001FFF003818BF012003B030BD0246214692
:10A13000284601F08BFE0028D8D0EDE72DE9F04F3E
:10A140009BB00024DFF8D8B007941031814606A8F0
:10A15000924601938DF8214011948DF84940CDF835
:10A1600018B0CDF840B000F0FBFE06AEA046554654
:10A1700010AF2F21284611F045F803465C1B2946F5
:10A1800002A8E4B20BB32B782F2B1CD00C2C28BFC9
:10A190000C24224611F064F81AAB2344384603F825
:10A1A000608C00F053FE012302AA3146384601F0CC
:10A1B00051F9034630465BB300F048FE3346254470
:10A1C0003E461F46D5E70135D3E7019B72683189CA
:10A1D000307EF468A5EB0A051D60D6E90435C9F8A0
:10A1E0000420A9F80810F269316AC9F81030736ABE
:10A1F00089F818004846C9E90721C9F800B0C9F82C
:10A200001450C9F80C40C9F824301BB0BDE8F08FD9
:10A210004846C9E900B389F809301BB0BDE8F08FA2
:10A2200020DC0300F0B5A1B005461E4602A801AB34
:10A230001446FFF783FF019AA15C1444002931D032
:10A240009DF811302A4F0C9700220D928DF839207D
:10A250002BB92846FFF71EFF284621B0F0BD0CA8F9
:10A260003346224602A901F0F5F80028F1D002A8F1
:10A2700006F0060600F0EAFD062E33D00D9BBDF871
:10A2800038101098179322460F9B119CADF8601060
:10A290001A901B9419939DF848101498139C159BC1
:10A2A000169713E0DDE90643039A1149BDF8100043
:10A2B0001792059A1691ADF860001A941B931992A3
:10A2C0009DF820100A98099C0B9B0A4A8DF8701083
:10A2D0001E9016A928461D941F93FFF7ADFE284631
:10A2E00021B0F0BD13990CA800F01CFFC6E700BF19
:10A2F00020DC030004DC03002DE9F04FA3B00023B1
:10A30000DFF88882059300F138061D460C46B346F7
:10A310008DF819300F938DF841301F46CDF810801D
:10A32000CDF838800DF1100914F805C0BCF12F0FDD
:10A330002A4600F09780BCF1000F00F0C380531C48
:10A340008DF800C0E15C2F2900F0D680002900F0D4
:10A35000DC80931C8DF80110E15C2F2900F0E9806E
:10A36000002900F0E880D31C8DF80210E15C2F2951
:10A3700000F0E380002900F0E280131D8DF8031047
:10A38000E15C2F2900F0DD80002900F0DC80531D06
:10A390008DF80410E15C2F2900F0D780002900F02F
:10A3A000D680931D8DF80510E15C2F2900F0D18037
:10A3B000002900F0D080D31D8DF80610E15C2F2914
:10A3C00000F0CB80002900F0CA8002F108038DF86C
:10A3D0000710E15C2F2900F0C880002900F0C78039
:10A3E00002F109038DF80810E15C2F2900F0C1800B
:10A3F000002900F0C08002F10A038DF80910E15C29
:10A400002F2900F0BA80002900F0B98002F10B0377
:10A410008DF80A10E15C2F2900F0B380002900F0CC
:10A42000B28002F10C038DF80B1014F803A08DF824
:10A430000C70BAF12F0F1D461ED001236A465946F3
:10A4400018A81997CDF860808DF8697001F002F8AE
:10A45000D0B95E4514D0584600F0F8FC002023B077
:10A46000BDE8F08F6A1C14F802C0BCF12F0F7FF416
:10A4700062AF8DF8007013465D1C14F805A0DCE790
:10A48000002023B0BDE8F08F18A800F0DFFCBAF17F
:10A49000000F28D001236A465946484600F0DAFFEB
:10A4A0005E45824609D0584600F0D0FCBAF1000F54
:10A4B000E6D05B46CB46994636E70028E0D00DF162
:10A4C000380BF6E76A460123594618A8CDE9188CDF
:10A4D0008DF800C08DF869C000F0BCFF0028B8D02E
:10A4E00018A800F0B3FC5E453BD0584600F0AEFC27
:10A4F000012023B0BDE8F08F012222A90A445D1C8F
:10A5000002F8887C14F805A097E7012322AAD01846
:10A51000002400F8884C6A460123594618A8CDF853
:10A52000608019948DF8694000F094FF002890D065
:10A53000D6E70222E1E70223E8E70322DDE703236F
:10A54000E4E70422D9E70423E0E70522D5E7052361
:10A55000DCE70622D1E70623D8E70722CDE7072369
:10A56000D4E7012023B0BDE8F08F0822C5E7082317
:10A57000CCE70922C1E70923C8E70A22BDE70A237D
:10A58000C4E70B22B9E70B23C0E700BF20DC0300C0
:10A59000074B084A9A630221002219615A719A7185
:10A5A0009A721A7383F83020DA6383F84120704777
:10A5B000C468002020DC03002DE9F04183790546C2
:10A5C0000F461646002B45D1394C2378002B5BD023
:10A5D0002879DFF8E08000210BF0FEFF08F08AFE0A
:10A5E000044605E008F086FE031BB3F5967F05D20E
:10A5F000FF21404601F0CCFDFF28F3D12D4847F064
:10A600004001804601F0C4FD182426FA04F1C9B2C5
:10A61000083C404601F0BCFD14F1080FF5D1BFB174
:10A62000082F14BFFF21872122480024064601F08D
:10A63000AFFD02E0B4F5807F08D0FF21304601F085
:10A64000A7FD030604F10104E872F3D4BDE8F0812C
:10A650009521E9E7038940F201245A1CA3420281B3
:10A660000AD8DFF85080FF21404601F091FD2B8988
:10A670005A1CA3422A81F6D90D4C287901210BF0EE
:10A68000ABFF23784BB9AB710B4B0A4893E806003C
:10A690000123237001F014FD9AE74FF000080548EC
:10A6A00084F8008001F06EFD237885F806808DE740
:10A6B00028690020446B00202C690020F8B58379BC
:10A6C0000446154613B1036899423FD0237B2160AD
:10A6D000032B18BF49020A4620461121FFF76CFFE1
:10A6E00048B103233D4D6371207901210BF074FFC4
:10A6F000287820BBF8BD08F0FDFD394F064605E07F
:10A7000008F0F8FD831BB3F5967F5ED8FF2138462D
:10A7100001F03EFDFF28E072F2D0FE2831D00D237B
:10A7200063712E4D207901210BF056FF2B78002B01
:10A73000DAD000232A482B7001F024FDD4E700244E
:10A7400027482C7001F01EFD2046F8BD0389002B20
:10A75000BCD1234F6E1E05F2FF15FF21384601F0D4
:10A7600017FD06F8010FB542F7D12289A17A02F54B
:10A7700000739BB2238149B1B3F5007F06D201205B
:10A78000F8BD002201232281A371E2E7A17900290B
:10A79000F5D040F2012502F20122AB42228109D814
:10A7A0000F4EFF21304601F0F3FC23895A1CAB42C7
:10A7B0002281F6D9207901210BF00EFF074B1A7880
:10A7C00032B90023A3710120F8BD0F236371A8E7FC
:10A7D000002203481A7001F0D5FCF2E72869002036
:10A7E000446B0020002B00F09B802DE9F0411D46BA
:10A7F0001344B3F5007F0446164612DC837913B187
:10A800000368994217D0237B2160032B18BF4902AC
:10A810000A4620461121FFF7CFFE002853D003231C
:10A820006371474D207901210BF0D6FE287800286E
:10A830006ED1BDE8F08103899A42E4D39E420AD9E1
:10A84000404FFF21384601F0A3FC2189013189B234
:10A850008E422181F5D8069BDFF8E8806F1E13FA3F
:10A8600087F75E1EFF21404601F092FC06F8010FBB
:10A87000B742F7D12289A37A1544ADB2258113B12D
:10A88000B5F5007F1CD3A379D3B140F201236A1C34
:10A890009D4222810AD82B4E1D46FF21304601F0F1
:10A8A00077FC23895A1CAB422281F6D920790121F9
:10A8B0000BF092FE224B1A78002A3BD10023A371A1
:10A8C0000120BDE8F08108F015FDDFF8788007462B
:10A8D00005E008F00FFDC01BB0F5967F27D8FF21DB
:10A8E000404601F055FCFF28E072F2D0FE2819D056
:10A8F0000D236371124D207901210BF06DFE2B7831
:10A90000002B8FD000230F482B7001F03BFC89E710
:10A9100000240C482C7001F035FC2046BDE8F08185
:10A9200001207047002301222381A27186E70F23B3
:10A930006371DFE7002203481A7001F023FCBDE7D2
:10A9400028690020446B0020062906D8052938D83C
:10A95000DFE801F00F171F272F0716234371002090
:10A9600070471C4B1C4A1A604FF480729A80012079
:10A970007047184B194A1A604FF480729A80012070
:10A980007047144B164A1A604FF4807208469A803A
:10A990007047104B134A1A604FF480729A8001205E
:10A9A00070470C4B104A1A604FF480729A80012055
:10A9B0007047084B0D4A1A604FF480729A8001204C
:10A9C0007047044B0A4A1A604FF480729A80012043
:10A9D000704700BF2C69002090D0030040787D01B3
:10A9E00000093D0080841E0040420F0020A10700A6
:10A9F00048E801002DE9F8430023027103738372D4
:10AA00008371437105460F4608F074FCDFF89C81A2
:10AA1000DFF89C910121064628790BF09DFD01216C
:10AA200028790BF0D9FD404601F006FB5E4BC9F8D2
:10AA300000304FF48073A9F8043099E806004046CE
:10AA400001F03EFB0A24FF21404601F0A1FB631EFA
:10AA500013F0FF04F7D1DFF85C81544801F092FB5A
:10AA600098F80030002B60D0287900210BF0B4FD5D
:10AA700005E008F03FFC801BB0F5FA6F52D80022C9
:10AA800011462846FFF798FD01280446E872F0D1E8
:10AA90004FF4D57208212846FFF78EFD430726D5CF
:10AAA0002C73002405E008F025FC801BB0F5FA6F3C
:10AAB00051D8002237212846FFF77EFD2246292162
:10AAC0002846FFF779FDE8720028ECD12B7B022B9A
:10AAD00043D0287901210BF07FFD98F80030002B3E
:10AAE00044D139462846BDE8F843FFF72DBFDFF8CB
:10AAF000BC900424FF21484601F04AFB631E13F07A
:10AB0000FF04E872F6D1AA284FF002031FD06B7140
:10AB1000287901210BF060FD98F8003073B900200E
:10AB2000BDE8F88301236B71F2E7012399E8060081
:10AB30001E4888F8003001F0C3FA95E700231B484F
:10AB400088F8003001F01EFB0020BDE8F8832B736D
:10AB50004FF08044ADE70823D9E702463A21284662
:10AB6000FFF72AFD48B106236B71D1E700230F4898
:10AB700088F8003001F006FBB3E7FF210B4801F035
:10AB800007FB00F0C000C02804BF03232B73FF2184
:10AB9000064801F0FDFAFF21044801F0F9FAFF210F
:10ABA000024801F0F5FA94E790D00300446B0020CE
:10ABB0002C690020286900202DE9F0410446002975
:10ABC00053D01F46037B032B16460A4618BF4A0282
:10ABD0001821FFF7F1FC58B104233F4D6371207930
:10ABE00001210BF0F9FC2878002842D1BDE8F08162
:10ABF0003A48FE21804601F0CBFA751E06F2FF1698
:10AC000015F8011F404601F0C3FAAE42F8D1FF210A
:10AC1000324801F0BDFAFF21304801F0B9FA2F485F
:10AC2000FF2101F0B5FA00F01F03052BE07237D1C8
:10AC30006FB308F05FFB294F064605E008F05AFBAA
:10AC4000801BB0F5167F3BD2FF21384601F0A0FAF9
:10AC5000FF280546F2D100220D212046FFF7ACFC6B
:10AC600078B114231C4D6371B9E712231A4D437157
:10AC7000B5E7002419482C7001F084FA2046BDE89D
:10AC8000F0811648294601F083FA0028E9D120799D
:10AC900001210BF0A1FC104B1A78AAB90120A5E7FD
:10ACA00011230D4D6371207901210BF095FC2B7858
:10ACB000002B94D0002309482B7001F063FA8EE733
:10ACC0001523054D63718AE7044800221A7001F0CC
:10ACD00059FA01208AE700BF28690020446B002050
:10ACE00038B5164D2B780446A3B1207900210BF01E
:10ACF00073FCFF21124801F04BFA01210346207931
:10AD00001C460BF069FC2B786BB9B4F1FF0018BF3F
:10AD1000012038BD0B4B0A4893E8060001232B7035
:10AD200001F0CEF9E1E7002305482B7001F02AFA83
:10AD3000B4F1FF0018BF012038BD00BF2869002012
:10AD4000446B00202C690020034B044A1A604FF426
:10AD500080729A80704700BF2C69002000093D0076
:10AD600070B590F90820037A002A04460D4608DBE6
:10AD700015B923F0100323722846BDE8704000F097
:10AD800089BD4069012100F0CBFDF0B1637A227EDC
:10AD90000E4E012B06EB421698BFE3690C4A98BF92
:10ADA000F361236A126873831B0CB38232B106F11C
:10ADB000160106F118009047338B7382237A03F053
:10ADC0007F032372002DD7D1D3E770BD3C690020EB
:10ADD0003469002070B500F10C0206460121406A7A
:10ADE00000F0E6FDF0B1336AF3B1F268337A716ACC
:10ADF00043F020033372087C4B690D79023A02FA62
:10AE000000F42344C5B16C1EE2B2023DAD1A1D44EC
:10AE10001C4401E0A5420DD02046013C00F06EFE2E
:10AE20000028F7D1002070BD337AF268326243F017
:10AE30008003DCE7736A187CF3694FF4007202FA4E
:10AE400000F00344F361012070BD00BF38B5437AC0
:10AE500063B190F90830002B044609DB012000F0B3
:10AE600019FD18B100236372012038BD002038BDE0
:10AE70004069012100F054FD0028F7D0637A227E5A
:10AE80000F4D012B05EB421598BFE3690D4A98BFA2
:10AE9000EB61236A12686B831B0CAB8232B105F144
:10AEA000160105F1180090472B8B6B82237A03F073
:10AEB0007F032372012000F0EDFC0028D2D1D5E7FA
:10AEC0003C690020346900202DE9F0414FF0203327
:10AED00005464B600B60C1F8073015F8014B84B094
:10AEE0008C4694B11D4F4FF0000E4FF007086E4690
:10AEF0002E2C10D1B8F10A0F2CD04FF0080E4FF0C5
:10AF00000A0815F8014B002CF2D19CF800002038FB
:10AF100018BF01201FE097E80F0086E80F003246B7
:10AF200001E0A34216D012F8013B002BF9D1C6452F
:10AF300010D8A4F121035D2B0CD8A4F16103192BC7
:10AF40009CBF203CE4B20EF101030CF80E405FFA06
:10AF500083FED6E7002004B0BDE8F08108DC0300E2
:10AF600038B5437A3BB991F82020102A04460D46A3
:10AF700003D0202A10D0002038BD022242724A8C11
:10AF800003625201C2610023012020722376C4E9CA
:10AF900003336562636138BD03234372496A01620A
:10AFA00000F11C02284600F0E1FD0028EBD1E2E7A9
:10AFB0002DE9F04F064685B0407A0392002800F054
:10AFC000A080337ADC0740F19C80F3690F4611467C
:10AFD00032699B1A994284BF9BB20393039D002D53
:10AFE00000F09480DFF83081DFF83091DFF830A195
:10AFF00038E0706A0479013C04EA5224E4B2BBF1FF
:10B00000000F40D1002C3ED1002A34D1316AF160CA
:10B0100090F810C04069023901FA0CF1044421444F
:10B02000CBF50074327AA542CCBFA4B22C465306AD
:10B0300002D4B4F5007F28D1D9F800208A4224D068
:10B04000DAF8000000975A462346FFF7CBFB0028AA
:10B0500057D031692D1B6218ADB227443261002DE3
:10B0600054D0707A0228C2F3080BC2D1716A496ABF
:10B0700001EB5221D4E7F16806F10C0200F0F8FD73
:10B0800000283ED0706AF168C2E70846002100F04F
:10B0900047FCB0B30BF104010BEB080341443A1D2C
:10B0A000934238BF8F4203EB040E22D3621E072A5D
:10B0B0001FD924F0030CBC443A46194651F8040B3E
:10B0C00042F8040B6245F9D124F00302944207EBE5
:10B0D000020003EB0201BCD09B5CBB544B1C9E45A1
:10B0E000B7D04B7843708B1C9E45B2D08B78837061
:10B0F000AFE77A1E13F8011B02F8011F9E45F9D134
:10B10000A7E74FF0FF3005B0BDE8F08FBDF90C00A8
:10B1100005B0BDE8F08F00BF3C690020046000204E
:10B12000406B0020F8B5437A1BB3C2698A420446DB
:10B130000F461ED3022B19D009B3436A01691D7C47
:10B140004A1E05F109037D1EDA40DD40AA4212D9EC
:10B15000236AE36004F10C0605E0E168606A00F030
:10B1600087FD013D28B13246002DF6D1276101202F
:10B17000F8BD0020F8BD0029EAD0AD1AEAE7E16089
:10B1800027610120F4E700BF38B5437A012B29D1AC
:10B19000037A9A07044625D55B0703D5C16903697D
:10B1A0008B4221D1154B1868FFF79AFD0146C8B9AB
:10B1B000237A13F020050CD1114A1268CAB920690C
:10B1C00043F01003C0F30800C0F50070237280B292
:10B1D00038BD627A1AB12046FFF7C2FD237A23F008
:10B1E00020032372002038BDFFF79CFF0028D9D12F
:10B1F000F8E700F07DFB284638BD00BF406B00201B
:10B200003C6B0020F8B52D4B03EB41130446DE7A6E
:10B2100016F0110F154602D012F0420F1BD1217605
:10B22000988A598B264A41EA00411268216262617C
:10B23000DA7A12F018070CD1DA69E261012605F01A
:10B240000F036806C4E903776672237218D4304688
:10B25000F8BD102F01D00020F8BD606A04F11C0277
:10B2600000F084FC0028F6D005F00F020421002332
:10B2700022726A06C4E903336172ECD40120F8BD7E
:10B28000AB07E8D5002AE2D0606A00F05BFD002839
:10B29000E1D0237A627A276263F07F03E761237249
:10B2A000002AD8D031462046FFF75AFD0028D2D0D8
:10B2B00039462046BDE8F840FFF734BF3C6900201E
:10B2C000046000202DE9F04F85B00DF10408074619
:10B2D0000C46104641469A46FFF7F6FD002878D006
:10B2E000E369626A7A620026C4E90366002B6CD0C7
:10B2F000DFF850B1DFF8589132460AE0E5296CD00A
:10B300005BF80310D8F800308B4269D0E3699342B0
:10B3100025D9637A012BC2F343155AD901220DF1C5
:10B3200003012046FFF744FE012852D122696B0138
:10B330001F3222611BF803100BEB45100029DDD1F1
:10B34000002E68D1D9F800103D7679611BF80330E2
:10B35000002B60D0E36993424FF00106D9D80AF080
:10B360001203122B35D1002E59D1637A022B30D023
:10B370002046FFF72FFD60B30023324C3B7698E860
:10B380000700314D23462E680025C4E90255C4E963
:10B390000455C4E9065503C3130C2281A372002E81
:10B3A00047D004F10E0104F11000B047238AE2896E
:10B3B000638201202383E28200F06CFA48B1397E77
:10B3C00052463846FFF71EFF04E00AF01203122B24
:10B3D000CBD0002005B0BDE8F08F002EBAD1B1E788
:10B3E0004168029B8B4200F104008FD1BDF80C1024
:10B3F00030F8043F994289D183789DF80E10994224
:10B4000084D10AF03003302BE3D052462946384627
:10B41000FFF7F8FEDEE70AF01203122BD9D17869A4
:10B42000012100F07DFA0028D3D03C7E0BEB4414C0
:10B43000A5E7064BC4F80E304FF4006242F6210334
:10B44000B6E700BF3C6900203469002000082128CD
:10B450000460002010B4447A1CB100205DF8044B55
:10B4600070475DF8044BFFF72DBF00BF437A002BF8
:10B4700036D070B590F90820037A002A04460D46AC
:10B4800008DB15B923F0100323722846BDE870408D
:10B4900000F000BA4069012100F042FAF0B1637A8D
:10B4A000227E104E012B06EB421698BFE3690E4A2E
:10B4B00098BFF361236A126873831B0CB38232B1A5
:10B4C00006F1160106F118009047338B7382237A38
:10B4D00003F07F032372002DD7D1D3E7002070BD86
:10B4E000002070473C690020346900202DE9F04FAE
:10B4F000437A85B0012B0746019240F0A880047A78
:10B50000A50740F1A48062070E4600F19580019BDB
:10B510003A69002B7AD0019DDFF87082DFF870A2C3
:10B5200084F01004C4F30019AB46786A017901393C
:10B5300001EA522111F0FF01C2F3080540F08D80AD
:10B54000002D40F0C880F968002940F0DC803B6A9B
:10B55000002B00F0EA80FB60047C4269BBF5007FB1
:10B56000A3F1020101FA04F15C4628BF4FF4007414
:10B57000BBF5007F114480F099803A69FB699342E2
:10B5800040F285800846012100F0CAF900285ED00B
:10B59000291D41444544331D9D4238BF8E4205EB71
:10B5A000040E2246C0F0A680631E072B40F2A28044
:10B5B0004FEA940C05EB8C0C2B46314651F8040BEA
:10B5C00043F8040B6345F9D124F003018C4206EBE8
:10B5D000010305EB01000ED016F801C005F801C00B
:10B5E000411C8E4506D059784170811C8E451CBF88
:10B5F0009B78837033191E463B69ABEB040B1A44EE
:10B600001FFA8BFB3A61BBF1000F8ED1FB699342AD
:10B6100080F0A6803C7AFA6144F080043C722307F3
:10B6200006D57B7A9BB101213846FFF799FB70B1B3
:10B63000019805B0BDE8F08FC2690369934200F03C
:10B640008A801146FFF76EFD00287FF460AF01236A
:10B650007B60002005B0BDE8F08FFB6890F810C05B
:10B660004069C5F50074A4B25C45A3F1020303FA76
:10B670000CF328BF5C460344B4F5007F194415D091
:10B68000002D7FF47FAFFB6993423FF67BAF012033
:10B69000009100F0FFF80028D9D0384A00991378BB
:10B6A000CAF8001043F00103137071E7DAF80030B4
:10B6B0008B4204BF4FF0FF33CAF80030304B3246A4
:10B6C00018684B46FFF778FA0028C0D04FF4007294
:10B6D0001644144690E7FB6890F810C04269C5F51F
:10B6E0000074A4B2991E01FA0CF15C45114428BF04
:10B6F0005C4647E7013D331916F8011B05F8011FA9
:10B70000B342F9D177E703AA00F0B2FA0028A1D03A
:10B71000786A1C4990F82040039B4FF6F872102C71
:10B7200018BF0A469342FFF416AF07F10C0201213D
:10B7300000F03EF900288AD03B6A33B1FB683A7AC0
:10B74000786A42F020023A7206E73A7AFB683B6276
:10B7500042F08002F4E7019B002B7FF4DCAE5EE751
:10B76000094B1B6843B1019B3C7A002B3FF457AF58
:10B7700044F080043C7252E73C7A50E7386900207C
:10B78000406B0020F8FFFF0F346900203C69002067
:10B790000460002000B583B00B4601220DF10701C3
:10B7A0008DF80730FFF7A2FE03B05DF804FB00BF81
:10B7B0002DE9F84F90F82030DFF8CC90C669102BB7
:10B7C0000D460446D9F8001017461AD006EBD516D8
:10B7D000B1421AD1DFF8B480294B05F07F0543F858
:10B7E0002570227E98F80030012A43F0010388F882
:10B7F000003081BFA368234AF61816600120BDE817
:10B80000F88F06EB1526B14214D0DFF88080DFF800
:10B8100080A098F80030A3B9DAF80000184A314641
:10B82000FEF74CFFE8B194F82030C9F80060102B07
:10B83000D2D101E0DFF85480114BEDB223F815703E
:10B84000CFE70F4ADAF800000123FFF7B5F940B15E
:10B85000DFF830B0DBF8001029B9002388F8003099
:10B86000DAE70020CBE7064ADAF800000123FFF709
:10B87000A3F90028F5D00023CBF80030EDE700BF96
:10B880003C6900203C6B00200460002038690020E7
:10B89000406B0020F8B5114D2B780BB90120F8BD95
:10B8A0000F4B104E1968104A044623463068FFF7C4
:10B8B00083F938B1002CF1D00C4F396821B900233D
:10B8C0002B70EBE70020F8BD3068074A2346FFF7EE
:10B8D00073F90028F6D000233B60F0E738690020B8
:10B8E00004600020406B00203C6900203C6B00207D
:10B8F00010B5084C216809B9012010BD034606485F
:10B90000064A0068FFF758F90028F6D000232360A4
:10B91000012010BD3C6B0020406B00203C690020E2
:10B920002DE9F8431D4F3B6883420C4606D11C4E5F
:10B930003178214331700120BDE8F883184EDFF8DB
:10B940006880327805465AB9D8F80000154A294669
:10B95000FEF7B4FE08B13D60EAE70020BDE8F883D9
:10B960001946104AD8F800000123FFF725F90028EE
:10B97000F3D0DFF83890D9F8001011B900233370F4
:10B98000E2E7084AD8F800000123FFF715F900287C
:10B99000E3D00023C9F80030F0E700BF04600020C6
:10B9A000386900203C690020406B00203C6B00207F
:10B9B0002DE9F04F176883B0054601920091002FE2
:10B9C00051D001374FF0000BE968481C8046A9B3FD
:10B9D0003C46A0453CBF022427468442DFF814A120
:10B9E000DFF814914FF0000628D895F82010E86988
:10B9F0001029D9F800102ED000EBD410814207D0C6
:10BA00000021FFF78DFFC8B195F82010102926D02E
:10BA100004F07F015AF8211021F07041A1B10134E6
:10BA20002746E9680136B14208D9A04538BF02244B
:10BA300001F1010038BF27468442D6D94FF0000BF0
:10BA4000584603B0BDE8F08F009B611CC81B9842AC
:10BA500011D00C46E5E700EB14208842D0D1E1B2CA
:10BA60003AF81110DAE7A1F1010BBBFA8BFB07687A
:10BA70004FEA5B1BA8E7012CE0D9EA680132944247
:10BA8000DCD86FF0704221462846FFF791FE00286F
:10BA9000D4D0661EA74222462846314610D2022C38
:10BAA000CCD0EC680134A642C8D8FFF781FE00284C
:10BAB000C4D03446661EA742224628463146EED3FD
:10BAC000019B196851B10129B8D9EA680132914244
:10BAD000B4D83A46FFF76CFE0028AFD0019B1F6038
